:020000040800F2
:1000000070BF0120550200083D5E0008BD59000880
:10001000395E0008AD0800080997000800000000DC
:10002000000000000000000000000000670200085F
:10003000390A0008000000007D03000833030008AF
:100040006F0200086F0200086F0200086F020008CC
:100050006F0200086F0200086F0200086F020008BC
:100060006F0200086F0200086F0200086F020008AC
:100070006F0200086F0200086F0200086F0200089C
:100080006F0200086F0200086F0200086F0200088C
:100090006F0200086F0200086F0200086F0200087C
:1000A0006F0200086F0200086F0200086F0200086C
:1000B0006F0200086F020008E17800086F02000874
:1000C0006F0200086F0200086F0200080575000843
:1000D0006F0200086F0200086F0200086F0200083C
:1000E0006F0200086F0200086F0200086F0200082C
:1000F0006F0200086F0200086F0200086F0200081C
:100100006F020008C56200086F0200086F02000855
:100110006F0200086F0200086F0200086F020008FB
:10012000B10800086F0200086F020008C10800084B
:100130006F0200086F0200086F0200086F020008DB
:100140006F0200086F0200086F020008AD5E000831
:10015000D1080008E10800086F0200086F020008DB
:100160006F0200086F0200086F0200086F020008AB
:100170006F0200086F0200086F0200080000000014
:100180006F0200086F02000800F002F800F052F859
:1001900014A696E8000CB244B344DA4501D100F04D
:1001A00049F8BAE80F000FA696E83000A5EB040561
:1001B00004EB0607AAEB0704A7F101074FEA1515A0
:1001C0004FEA3414A4F10104AC4201D300F032F838
:1001D00013F0010F18BFFB1A43F0010300F001F800
:1001E000DBE718475C4401009C440100103A24BF3F
:1001F00078C878C1FAD8520724BF30C830C144BF8C
:1002000004680C6070470000704700000023002461
:1002100000250026103A28BF78C1FBD8520728BF16
:1002200030C148BF0B6070471FB514F070F91FBD97
:1002300010B510BD00F0CAFA1146FFF7F5FF13F034
:10024000C7FB00F0E8FA03B4FFF7F2FF03BC00F0CD
:10025000EFFA00000948804709480047FEE7FEE73B
:10026000FEE7FEE7FEE7FEE7FEE7FEE7FEE7FEE766
:1002700004480549054A064B70470000CD78000840
:100280008901000868EF012070BF012068FF01208C
:1002900070AF01200000000000000000000000001E
:1002A00080C3012070BF012000000008140300205B
:1002B000001000E07FA219000000FF4000BF00BF57
:1002C00072B65FF824005FF8241001F104010160A8
:1002D0004FF0E0205FF83010C0F8081D5FF83400E0
:1002E0005FF83C10096801605FF83C00016841F06C
:1002F000010101604FF0E0205FF8481041614FF0CC
:10030000070101614FF00001C0F8181D4FF07F4157
:10031000C0F81C1D5FF86010C0F8201D7047FFF783
:10032000FEBFFFF7FEBFFFF7FEBF01B5BDE801400E
:10033000704701B500F08CF8BDE801407047FFF749
:10034000FEBFFFF7FEBF000000000000000000003D
:100350004FF000002A4A1060EFF3148020F00400F0
:1003600080F3148862B64FF080504FF0E021C1F85E
:10037000040DBFF34F8FBFF36F8FFEE72148224A72
:100380004FF00003016891B10360EFF3098C2CE991
:10039000F00F1EF0100F01D12CED108A1B4C4CF801
:1003A00004ED2568C1F808C00DB18D61236072B6F7
:1003B0001168B1B1016062B64F68144C8D6907F1E4
:1003C00001074F602560D1F808C05CF804EB1EF00F
:1003D000100F01D1BCEC108ABCE8F00F8CF3098837
:1003E000704772B61168016009B962B6F9E74FF05B
:1003F00000674FF0E028C8F8047D62B6DCE770477C
:1004000098C3012094C30120880200202C030020FF
:10041000026922F00702A2F144026FF002031360A6
:100420004FF0000353609360D36013615361936195
:10043000D361136253629362D362136353634FF0C9
:10044000FF339363D1634FF080731364826070470E
:100450002249086800F101000860214B1A683AB18E
:10046000A2F101021A601AB91E4B4FF00100186088
:100470001D490868026822B11C4B4FF001021A6046
:1004800008E000F104001A4B1A68904201D1194BA0
:1004900018680860134B1A6812B914490868D0B17B
:1004A0002DE901401149086808B10DF063FF0D4BBB
:1004B0001A6872B10DF0D2FE0F48016849B90F48B1
:1004C00001680F4A13680F484FF08052994200D0DC
:1004D0000260BDE80140BFF34F8F704738C4012070
:1004E0002C030020A8C30120A4C301201C0300206A
:1004F000200300202403002098C3012094C301207E
:100500008802002004ED00E053EA020C00F069804C
:100510002DE9F04B4FF00006002B1FBFB3FA83F517
:1005200003FA05F424FA05F65E4012BF1643B2FA48
:1005300082F502FA05F4C5F120051EBF22FA05FC7A
:1005400044EA0C04203556EA044C4FEA144418BF20
:10055000641C4FF000084FF00009904271EB030C4F
:1005600039D3002919BFB1FA81F701FA07F6B0FAB9
:1005700080F700FA07F6C7F120071EBF20FA07FC34
:1005800046EA0C062037B6FBF4FCA7EB0507103F44
:1005900007F01F0BCBF120062CFA06F60CFA0BFB2A
:1005A00044BFB3460026202FA4BF5E464FF0000B89
:1005B0005BEA060C08BF4FF0010B19EB0B0948EB87
:1005C0000608ABFB027C06FB02CC0BFB03CCC01B7A
:1005D00071EB0C01C1E70B46024641464846BDE8B7
:1005E000F08B13B5084318BF4FF0FF300146AFF34F
:1005F0000080BDE81C40704710B5431C02E010F8B5
:10060000011B71B18107FAD14FF0013202C88C1A77
:100610008C4314EAC211F9D0C01A0A0603D0C01ED6
:1006200010BDC01A10BD0A0401D0801E10BD090201
:10063000FCD0401E10BD032A40F2308010F0030CA5
:1006400000F0158011F8013BBCF1020F624498BF25
:1006500011F801CB00F8013B38BF11F8013BA2F1C2
:10066000040298BF00F801CB38BF00F8013B11F03D
:10067000030300F02580083AC0F0088051F8043BDD
:10068000083A51F804CBA0E80810F5E7121D5CBF4A
:1006900051F8043B40F8043BAFF30080D20724BF7D
:1006A00011F8013B11F801CB48BF11F8012B24BF11
:1006B00000F8013B00F801CB48BF00F8012B704760
:1006C00010B5203AC0F00B80B1E81850A0E81850DF
:1006D000B1E81850A0E81850203ABFF4F5AF5FEA2F
:1006E000027C24BFB1E81850A0E8185044BF18C9D4
:1006F00018C0BDE810405FEA827C24BF51F8043B7B
:1007000040F8043B08BF7047D20728BF31F8023BCE
:1007100048BF11F8012B28BF20F8023B48BF00F862
:10072000012B704702F0FF0343EA032242EA024230
:1007300000F002B84FF000020429C0F0128010F05F
:10074000030C00F01B80CCF1040CBCF1020F18BFAD
:1007500000F8012BA8BF20F8022BA1EB0C0100F040
:100760000DB85FEAC17C24BF00F8012B00F8012B13
:1007700048BF00F8012B70474FF0000200B5134648
:1007800094469646203922BFA0E80C50A0E80C50B1
:10079000B1F12001BFF4F7AF090728BFA0E80C5062
:1007A00048BF0CC05DF804EB890028BF40F8042B5B
:1007B00008BF704748BF20F8022B11F0804F18BFC8
:1007C00000F8012B7047704770477047754600F07E
:1007D0002BF8AE4605006946534620F007008546D3
:1007E00018B020B5FFF744FDBDE820404FF00006EB
:1007F0004FF000074FF000084FF0000BAC46ACE89C
:10080000C009ACE8C009ACE8C009ACE8C00921F0F7
:1008100007018D46704710B50446AFF300802046AF
:10082000BDE81040FFF70FBD0048704738000020BA
:1008300001491820ABBEFEE7260002007047000009
:1008400080B58CB00A90002309930A980890089804
:1008500007A94FF400620DF0E9FF18B1FFE702208D
:100860000B9020E007986946B0228A6101224A6114
:1008700000230B611922CA608A604FF400624A604B
:1008800008604EF2B060C2F2010044F24851C0F676
:10089000010143F2A172C0F601020EF0D5FB0990EE
:1008A00009980B90FFE70B980CB080BDFFE7FEE7BF
:1008B00080B540F29870C2F2000000F0E5F880BD0B
:1008C00080B540F23870C2F2000000F0DDF880BD63
:1008D00080B54CF68010C2F2010000F0D5F880BD62
:1008E00080B54CF62010C2F2010000F0CDF880BDBA
:1008F00082B001900198007810384AF6AB21CAF610
:10090000AA21A0FB011000090090009944F2405078
:10091000C0F60100405C0199C8650098042807D31F
:10092000FFE701990868042262F30900886506E080
:100930000199086840F2FF3290438865FFE701980B
:10094000806D02B07047000086B0059000208DF8E1
:1009500013000598806A03900598806910BBFFE733
:100960000398029003281BD80299DFE801F0020DDA
:100970000218059890F82F00C00720B1FFE701206A
:100980008DF81300FFE70CE00598C06AB0F1C07F56
:1009900004D1FFE701208DF81300FFE701E000E03C
:1009A000FFE745E005988069B0F5005F25D1FFE7D6
:1009B0000398019003281ED80199DFE801F0020690
:1009C000021101208DF8130016E0059890F82F0011
:1009D000C00720B1FFE701208DF81300FFE70BE00F
:1009E0000598C06AB0F1C07F04D1FFE701208DF8FF
:1009F0001300FFE700E0FFE719E0039800900328E9
:100A000004D3FFE70098032804D00EE001208DF8FE
:100A100013000BE0059890F82F00C00720B1FFE706
:100A200001208DF81300FFE700E0FFE7FFE7FFE795
:100A30009DF8130006B070477047000072B6FFE7DC
:100A4000FEE7000082B00090009890F83500022880
:100A500007D0FFE700998020486501208DF8070046
:100A60000EE00099052081F83500009801680868BB
:100A700020F001000860FFE700208DF80700FFE785
:100A80009DF8070002B0704780B586B00590002041
:100A900003904CF20000C2F20100006848F2B51168
:100AA000C1F64E31A0FB0110800A02900598806DBE
:100AB000019001980068049004980599C96DC84098
:100AC000000700281AD5FFE705980068006840076E
:100AD000002812D5FFE705980168086820F0040097
:100AE00008600598C16D08208840019988600599C3
:100AF000486D40F001004865FFE7FFE7049805995D
:100B0000C96DC840C007A0B1FFE7059800684069FB
:100B1000000600280CD5FFE70598C16D012088402C
:100B2000019988600599486D40F002004865FFE72B
:100B3000FFE704980599C96DC8404007002814D5FF
:100B4000FFE7059800680068800700280CD5FFE7DC
:100B50000598C16D04208840019988600599486D09
:100B600040F004004865FFE7FFE704980599C96D68
:100B7000C840C006002847D5FFE705980068006810
:100B8000000700283FD5FFE70598C16D1020884079
:100B900001998860059800680068400300281AD50C
:100BA000FFE70598006800680003002809D4FFE704
:100BB0000598006C20B1FFE70598016C8847FFE7B6
:100BC00008E00598806C20B1FFE70598816C8847A4
:100BD000FFE7FFE716E0059800680068C0050028F9
:100BE00007D4FFE705980168086820F0080008604E
:100BF000FFE70598006C20B1FFE70598016C884776
:100C0000FFE7FFE7FFE7FFE704980599C96DC840D4
:100C10008006002840F18D80FFE705980068006895
:100C2000C006002840F18480FFE70598C16D2020B0
:100C3000884001998860059890F83500052834D1DE
:100C4000FFE705980168086820F01600086005981D
:100C50000168486920F0800048610598006C20B95F
:100C6000FFE70598806C38B1FFE7059801680868D0
:100C700020F008000860FFE70598C16D3F2088401C
:100C8000019988600599012081F83500FFE70599F1
:100C9000002081F83400FFE70598006D20B1FFE7E0
:100CA0000598016D8847FFE77BE0059800680068BC
:100CB000400300281AD5FFE7059800680068000384
:100CC000002809D4FFE70598406C20B1FFE705989C
:100CD000416C8847FFE708E00598C06B20B1FFE74B
:100CE0000598C16B8847FFE7FFE720E0059800689B
:100CF0000068C005002811D4FFE70598016808685E
:100D000020F0100008600599012081F83500FFE708
:100D10000599002081F83400FFE7FFE70598C06BD4
:100D200020B1FFE70598C16B8847FFE7FFE7FFE7C2
:100D3000FFE70598406DA0B3FFE70598406DC00739
:100D400030B3FFE70599052081F835000598016863
:100D5000086820F001000860FFE703980130039065
:100D60000299884201D9FFE707E0FFE7059800688C
:100D70000068C0070028F0D1FFE70599012081F83D
:100D80003500FFE70599002081F83400FFE7FFE711
:100D90000598C06C20B1FFE70598C16C8847FFE754
:100DA000FFE706B080BD000080B586B0049000204B
:100DB000039000F0C7FA0290049820B9FFE70120E1
:100DC0008DF81700A3E00498406A08B1FFE7FFE739
:100DD0000499022081F83500FFE70499002081F88A
:100DE0003400FFE704980168086820F001000860FB
:100DF000FFE7049800680068C00790B1FFE700F0C3
:100E0000A1FA0299401A06280AD3FFE70499202084
:100E100048650499032081F835008DF8170076E0C5
:100E2000E7E70498006800680390039848F23F01E0
:100E3000CFF2100108400390049900914868D1F85E
:100E400008C0CB680A6940EA0C00184310434A699D
:100E500010438A691043CA691043096A0143039821
:100E6000084303900498406A042808D1FFE70499D6
:100E7000C86A096B0143039808430390FFE703988E
:100E80000499096808600498006840690390039811
:100E900020F0070003900498416A039808430390E8
:100EA0000498406A04281AD1FFE70498816A0398DD
:100EB000084303900498C06A80B1FFE70498FFF7E5
:100EC00043FD50B1FFE70499402048650499012093
:100ED00081F835008DF8170019E0FFE7FFE7039868
:100EE0000499096848610498FFF702FD019004988D
:100EF000C16D3F20884001998860049900204865B1
:100F0000049A012182F835108DF81700FFE79DF84B
:100F1000170006B080BD000080B584B0039000F0DB
:100F200011FA0290039801900198013048B1FFE74F
:100F300040F23000C2F200000178019808440190AC
:100F4000FFE7FFE700F0FEF90299401A0199884295
:100F500001D2FFE7F6E704B080BD00008EB00D902F
:100F60000C9100200A90099008900B90FFE70B98D5
:100F70000F2800F2CC81FFE70B99012088400A90EE
:100F80000C9800680A990840099009980A998842C3
:100F900040F0B881FFE70C98406800F0030001289A
:100FA00007D0FFE70C98406800F0030002282FD11B
:100FB000FFE70D98806808900B984100032000FA25
:100FC00001F10898884308900C98C0680B99490073
:100FD00000FA01F108980843089008980D99886074
:100FE0000D98406808900B99012000FA01F10898CB
:100FF000884308900C984068C0F300100B9900FAE1
:1010000001F108980843089008980D994860FFE797
:101010000C98406800F00300032818D0FFE70D98F3
:10102000C06808900B984100032000FA01F108986D
:10103000884308900C9880680B99490000FA01F1E8
:1010400008980843089008980D99C860FFE70C9825
:10105000406800F00300022826D1FFE70D980B99A5
:101060006FF0030202EA51010844006A08900B98ED
:1010700000F0070081000F2000FA01F10898884372
:1010800008900C9800690B9901F00701890000FA9B
:1010900001F108980843089008980D990B9B02EA03
:1010A000530211440862FFE70D98006808900B98FE
:1010B0004100032000FA01F10898884308900C9839
:1010C000406800F003000B99490000FA01F108980C
:1010D0000843089008980D9908600C98807980075B
:1010E000002800F00E81FFE7FFE70020079043F69D
:1010F0004400C4F20200016841F4804101600068CC
:1011000000F4804007900798FFE70B9820F0030059
:1011100043F60801C4F20101405808900B9800F012
:10112000030081000F2000FA01F10898884308901D
:101130000D980021C4F20201884203D1FFE700208C
:1011400006905EE00D9840F20041C4F20201884230
:1011500003D1FFE70120059050E00D9840F6000113
:10116000C4F20201884203D1FFE70220049042E06A
:101170000D9840F60041C4F20201884203D1FFE716
:101180000320039034E00D9841F20001C4F2020103
:10119000884203D1FFE70420029026E00D9841F237
:1011A0000041C4F20201884203D1FFE7052001900B
:1011B00018E00D9841F60001C4F20201884203D103
:1011C000FFE7062000900AE00D9941F60042C4F2C4
:1011D00002020820914208BF07200090FFE7009814
:1011E0000190FFE701980290FFE702980390FFE764
:1011F00003980490FFE704980590FFE70598069090
:10120000FFE70698C0B20B9901F00301890000FACC
:1012100001F108980843089008980B9921F0030100
:1012200043F60802C4F20102885043F60840C4F2B3
:1012300001000068089009990898884308900C9864
:101240008079C006002805D5FFE70999089808436A
:101250000890FFE7089843F60841C4F201010860CE
:1012600043F60C40C4F20100006808900999089800
:10127000884308900C9880798006002805D5FFE700
:101280000999089808430890FFE7089843F60C412D
:10129000C4F20101086043F60440C4F20100006892
:1012A000089009990898884308900C9880798007DD
:1012B000002805D5FFE70999089808430890FFE73B
:1012C000089843F60441C4F20101086043F6004067
:1012D000C4F20100006808900999089888430890B2
:1012E0000C988079C00728B1FFE70999089808434E
:1012F0000890FFE7089843F60041C4F20101086036
:10130000FFE7FFE7FFE70B9801300B902FE60EB0E9
:101310007047000082B00190ADF802108DF80120F6
:101320009DF8010028B1FFE7BDF80200019988612E
:1013300005E0BDF80200000401998861FFE702B0F2
:10134000704700004AF63470C2F20000006870472F
:1013500040F23000C2F2000002784AF63471C2F264
:1013600000010868104408607047000080B582B032
:1013700043F60041C4F20201086840F400700860BE
:10138000086840F480600860086840F48070086075
:10139000032000F0D5F80020019000F005F800F0DF
:1013A0007BF8019802B080BD80B58CB00B90002016
:1013B00004900390FFE70020009043F64000C4F241
:1013C0000200016841F004010160006800F00400BF
:1013D00000900098FFE706A802A901F00BFD09980C
:1013E0000490049820B9FFE701F034FD059004E073
:1013F00001F030FD40000590FFE705984DF6836150
:10140000C4F21B31A0FB01014FF0FF3000EB914013
:10141000039040F66050C2F2000040F60001C4F2B2
:101420000001016040F2E731C16003994160002191
:1014300001618160816104F0C3F88DF807009DF8B7
:10144000070028BBFFE740F66050C2F2000004F03E
:1014500009F98DF807009DF80700C0B9FFE71E20C5
:1014600000F04AF80B980F280CD8FFE70B991E20C4
:10147000002200F04BF80B984CF26001C2F201011F
:10148000086003E001208DF80700FFE7FFE7FFE7B2
:101490009DF807000CB080BD82B0FFE700200190EE
:1014A00043F64400C4F20200016841F48041016047
:1014B000006800F4804001900198FFE7FFE70020FA
:1014C000009043F64000C4F20200016841F08051F0
:1014D0000160006800F0805000900098FFE702B0C3
:1014E0007047000080B582B08DF807009DF90700B5
:1014F00008F0E0FA02B080BD80B582B08DF8070038
:101500009DF9070008F0F2FA02B080BD80B586B000
:101510008DF81700049103920020029008F0FEFA63
:1015200002909DF91700019002980499039A04F023
:1015300087FC0146019808F0F9FA06B080BD00006A
:1015400080B582B00190019808F012FB02B080BD16
:1015500082B001908DF8031002B0704782B0019004
:10156000ADF80210BDF80200019909684862002038
:1015700002B0704784B003908DF80B10ADF80820CE
:1015800003980068406A00909DF80B0048B9FFE797
:10159000BDF80810009840EA014003990968886284
:1015A00033E003980068816A009800EB11400090D6
:1015B00000208DF80700FFE79DF807009DF80B104D
:1015C0000139884213D2FFE7039800689DF807109D
:1015D00000EB8100D0F80411009800EB114000905E
:1015E000FFE79DF8070001308DF80700E4E7BDF83C
:1015F0000810009840EA0140039909689DF80B2003
:1016000001EB8201C1F80001FFE7002004B0704740
:1016100081B0009001B0704780B58AB009908DF814
:10162000231040F23430C2F200000068079007989F
:10163000C069069006989DF8231001F00F0101EB98
:10164000410100EB810004300590059800683030BE
:1016500004909DF82300002862D1FFE70498806879
:1016600002900598007A012859D1FFE709980023D4
:1016700019461A4600F09EFA0498C0690299C96991
:10168000884227D8FFE70498006D01280CD1FFE7B6
:1016900009980299097D002301931A4600F030FB56
:1016A00001980499086514E004990020486204999F
:1016B000022008600499486988610498C06A20B1D2
:1016C000FFE70498C16A8847FFE70599042008727C
:1016D000FFE723E00498C0690299C969401A0390A2
:1016E00003980299C969884204D9FFE70298C06942
:1016F0000390FFE70298C2690499086910440861E1
:10170000039A0499C869801AC86109980299097DE9
:10171000049A1269039B00F0F3FAFFE7FFE70DE07C
:1017200004990020486204990220086004994869DD
:1017300088610498303011F0F1FEFFE70AB080BDF7
:1017400080B588B007908DF81B1040F23430C2F29B
:101750000000006805900598C069049004989DF801
:101760001B1001F00F0101EB410100EB810004307F
:10177000039003980068303002909DF81B00002809
:1017800049D1FFE70398007A022843D1FFE7029886
:101790008068009007989DF81B1000F081F9019077
:1017A000019A0299886910448861029841698069A8
:1017B000884222D8FFE7029841698069884206D0B2
:1017C000FFE701980099C969884206D0FFE70398AE
:1017D0000299079A0EF0ACF80EE00098C2690299DF
:1017E0000869104408610798009B197D029A1269E4
:1017F000DB6900F0DFF9FFE70BE002992720486280
:101800000298C06A20B1FFE70298C16A8847FFE7E3
:10181000FFE7FFE711E007989DF81B1000F040F983
:1018200002998861029900204862029902200860AA
:101830000298303011F072FEFFE708B080BD000062
:1018400080B582B0019040F23430C2F200000068EE
:10185000006A18B1FFE710F0EFFBFFE702B080BDB0
:1018600080B584B003908DF80B109DF80B00000636
:1018700000280CD5FFE703989DF80B1001F00F012D
:1018800001EBC10100EB8100143001900CE00398E2
:101890009DF80B1001F00F0101EBC10100EB81007D
:1018A00000F515700190FFE703980068019907F0B3
:1018B00063FB8DF80A009DF80A0004B080BD0000AB
:1018C00080B584B002908DF807109DF807000006DF
:1018D00000280FD5FFE702989DF8071001F00F01CF
:1018E00001EBC10100EB8100143000900099012050
:1018F00048700FE002989DF8071001F00F0101EB0E
:10190000C10100EB810000F51570009000990020E6
:101910004870FFE79DF8070000F00F00009908707D
:10192000FFE7029890F89404012804D1FFE7022011
:101930008DF80F0014E00299012081F89404FFE76C
:10194000FFE702980068009906F006FEFFE702999B
:10195000002081F89404FFE700208DF80F00FFE7D6
:101960009DF80F0004B080BD80B584B002908DF862
:1019700007109DF8070000F00F00029909798842CE
:1019800004D9FFE701208DF80F004DE09DF8070016
:10199000000600280FD5FFE702989DF8071001F018
:1019A0000F0101EBC10100EB8100143000900099A0
:1019B000012048700FE002989DF8071001F00F0118
:1019C00001EBC10100EB810000F51570009000995A
:1019D00000204870FFE70099002088709DF80700FC
:1019E00000F00F0000990870FFE7029890F8940447
:1019F000012804D1FFE702208DF80F0014E00299BE
:101A0000012081F89404FFE7FFE70298006800993D
:101A100007F012F8FFE70299002081F89404FFE72D
:101A200000208DF80F00FFE79DF80F0004B080BD87
:101A300080B584B002908DF80710FFE7029890F807
:101A40009404012804D1FFE702208DF80F0023E061
:101A50000299012081F89404FFE7FFE79DF8070051
:101A60000006002809D5FFE7029800689DF80710D6
:101A700001F00F0107F052FB04E00298006807F044
:101A800013FBFFE7FFE70299002081F89404FFE7CA
:101A900000208DF80F00FFE79DF80F0004B080BD17
:101AA00082B001908DF8031001989DF8031001F0A9
:101AB0000F0101EBC10100EB8100D0F8680202B018
:101AC0007047000080B586B004908DF80F10ADF817
:101AD0000C208DF80B3000208DF80A009DF80F00C7
:101AE000000600280FD5FFE704989DF80F1001F0BD
:101AF0000F0101EBC10100EB81001430019001994D
:101B0000012048700FE004989DF80F1001F00F01BC
:101B100001EBC10100EB810000F515700190019906
:101B200000204870FFE79DF80F0000F00F000199BA
:101B30000870BDF80C006FF3DF20019988609DF8F4
:101B40000B00019908710198407820B1FFE70199D5
:101B500008784883FFE79DF80B00022804D1FFE7CF
:101B6000019900204871FFE7FFE7049890F894047A
:101B7000012804D1FFE702208DF8170015E0049931
:101B8000012081F89404FFE7FFE7049800680199B9
:101B900006F0ACFBFFE70499002081F89404FFE70E
:101BA0009DF80A008DF81700FFE79DF8170006B0B2
:101BB00080BD000080B586B005908DF813100392AB
:101BC000029305989DF8131001F00F0101EBC1017C
:101BD00000EB810000F51570019003980199C86031
:101BE00002980199086101990020486101994870A3
:101BF0009DF8130000F00F00019908700598807996
:101C0000012804D1FFE703980199C861FFE7059A0D
:101C100010680199927906F0B3FF002006B080BDEC
:101C200080B584B002908DF807109DF8070000F091
:101C30000F0002990979884204D9FFE701208DF845
:101C40000F0058E09DF80700000600280FD5FFE7B9
:101C500002989DF8071001F00F0101EBC10100EBA4
:101C60008100143000900099012048700DE0029826
:101C70009DF8071001EBC10100EB810000F5157024
:101C80000090009900204870FFE7009901208870BB
:101C90009DF8070000F00F0000990870FFE7029818
:101CA00090F89404012804D1FFE702208DF80F007A
:101CB00021E00299012081F89404FFE7FFE70298F0
:101CC0000068009906F008FF9DF80700000740B97A
:101CD000FFE7029A1068917902F29C4206F05CFEDE
:101CE000FFE7FFE70299002081F89404FFE7002056
:101CF0008DF80F00FFE79DF80F0004B080BD0000D5
:101D000080B586B005908DF8131003920293059864
:101D10009DF8131001F00F0101EBC10100EB8100F0
:101D20001430019003980199C860029801990861E4
:101D30000199002048610199012048709DF8130025
:101D400000F00F000199087005988079012804D1EE
:101D5000FFE703980199C861FFE7059A10680199A8
:101D6000927906F00DFF002006B080BD80B58CB0E2
:101D70000B900B9800680A900A9809900B980068DD
:101D800007F030FA002840F00C84FFE70B98006859
:101D900007F094FA10B9FFE700F003BC0998D0F8F7
:101DA0000808C0F30D200B99C1F8D4040B98006803
:101DB00007F084FA8007002807D5FFE70B98016831
:101DC000486900F002004861FFE70B98006807F0DF
:101DD00075FAC006002862D5FFE70B98016888698C
:101DE00020F0100088610A98006A02900B9802990E
:101DF00001F00F0101EBC10100EB810000F515704E
:101E00000890029800F4F0110220B0EB514F23D15A
:101E1000FFE7BDF8080047F6F07108421BD0FFE766
:101E20000A980899C968029AC2F30A1207F054FA8C
:101E3000029847F6F07100EA0103089AD06800EBB7
:101E40001310D060029800EA01020899486900EB7B
:101E500012104861FFE71BE0029800F4F011062021
:101E6000B0EB514F12D1FFE70A980B9901F29C4158
:101E7000082207F031FA029847F6F07100EA0102F1
:101E80000899486900EB1210486100E0FFE7FFE79E
:101E90000B980168886940F010008861FFE70B9893
:101EA000006807F00BFA0003002840F1A680FFE766
:101EB000002004900B98006807F0AEF90690FFE749
:101EC0000698002800F09880FFE79DF81800C007EA
:101ED000002800F08A80FFE70B9800689DF810103A
:101EE00007F0D4F905909DF81400C00760B1FFE732
:101EF0000998049900EB41110120C1F8080B0B98D7
:101F0000049904F021F8FFE79DF814000007002869
:101F10000CD5FFE70998049900EB41110820C1F89E
:101F2000080B0B98049903F0C9FFFFE79DF8140014
:101F3000C006002808D5FFE70998049900EB411175
:101F40001020C1F8080BFFE79DF814008007002857
:101F50002DD5FFE70A9840690006002808D5FFE75D
:101F60000999D1F8040840F48060C1F80408FFE73B
:101F70000B98049901EBC10100EB810000F515708D
:101F800008900898C078012809D1FFE70899002037
:101F9000C8700B989DF8101000F00CFBFFE7099833
:101FA000049900EB41110220C1F8080BFFE79DF8EE
:101FB00014008006002808D5FFE70998049900EB73
:101FC00041112020C1F8080BFFE79DF8150080069D
:101FD000002809D5FFE70998049900EB41114FF457
:101FE0000050C1F8080BFFE7FFE7049801300490A8
:101FF00006984008069063E7FFE70B98006807F033
:102000005DF94003002840F1C680FFE70B980068A7
:1020100007F0F0F8069000200490FFE706980028EB
:1020200000F0B880FFE79DF81800C007002800F016
:10203000AA80FFE70B9800689DF8101007F0FEF8E3
:1020400005909DF81400C00700283ED0FFE70498D3
:1020500000F00F01012000FA01F10391039B099A9E
:10206000D2F834189943C2F834180999049A01EB4C
:102070004211C1F808090B98807901281FD1FFE7A8
:102080000B98049901EBC10100EB8101CA69086A50
:1020900010440862049888B9FFE70B98049901EB93
:1020A000C10100EB8100406A40B9FFE70B99086865
:1020B00001F29C42012106F06FFCFFE7FFE70B985D
:1020C0009DF81010FFF7A8FAFFE79DF8140000072D
:1020D000002808D5FFE70998049900EB4111082072
:1020E000C1F80809FFE79DF81400C006002808D5CC
:1020F000FFE70998049900EB41111020C1F8080985
:10210000FFE79DF814004006002808D5FFE709986E
:10211000049900EB41114020C1F80809FFE79DF840
:1021200014008007002822D5FFE70A98049906F0DA
:10213000F5FF0B98049901EBC10100EB810014300D
:1021400008900898C078012809D1FFE70899002075
:10215000C8700B989DF8101000F026FAFFE7099858
:10216000049900EB41110220C1F80809FFE79DF82E
:1021700014000006002805D5FFE70B98049903F02A
:10218000C7FFFFE7FFE70498013004900698400876
:10219000069043E7FFE70B98006807F08FF8C00F41
:1021A00000B3FFE70999D1F8040820F00100C1F855
:1021B00004080B9890F8CC04012808D1FFE70B988D
:1021C000002180F8CC140B98FFF7C2F903E00B98BC
:1021D00000F0AEFBFFE70B980168486900F0004093
:1021E0004861FFE70B98006807F068F800050028D1
:1021F00011D5FFE70998D0F80808C00720B1FFE71C
:102200000B9800F0C1FCFFE70B980168486900F4E7
:1022100000604861FFE70B98006807F04FF8C004C2
:10222000002840F18680FFE70999D1F8040820F0E2
:102230000100C1F804080B980068102106F06EFF39
:1022400000200790FFE707980B990979884231D25F
:10225000FFE70998079900EB41114FF67F30C1F86D
:1022600008090999079A01EB4212D2F8001921F4E2
:102270000011C2F800190999079A01EB4211C1F83F
:10228000080B0998079900EB4111D1F8000B20F4D5
:102290000010C1F8000B0998079900EB4111D1F823
:1022A000000B40F00060C1F8000BFFE70798013019
:1022B0000790C8E70999D1F81C0840F00110C1F84F
:1022C0001C080B98C07B78B1FFE70999D1F8840806
:1022D00040F00B00C1F884080999D1F8440840F097
:1022E0000B00C1F844080FE00999D1F8140842F234
:1022F0002B021043C1F814080999D1F8100840F0D6
:102300000B00C1F81008FFE70999D1F8000820F484
:10231000FE60C1F800080B9A1068917902F29C42A5
:1023200006F03AFB0B980168486900F48050486158
:10233000FFE70B98006806F0C1FF800400281FD556
:10234000FFE70B98006806F041F80B98006806F06C
:1023500023FF0B99C8710B980068019000F074FD81
:10236000014601980B9AD27907F0AEF80B9800F06D
:10237000A1FA0B980168486900F400504861FFE732
:102380000B98006806F09AFF000700280AD5FFE7BF
:102390000B9800F0D1FA0B980168486900F008002A
:1023A0004861FFE70B98006806F088FF00060028E8
:1023B00025D5FFE70A99886920F08000886101200F
:1023C0000490FFE704980B990979884216D2FFE739
:1023D0000B98049901EBC10100EB810090F85702C2
:1023E000012806D1FFE70B989DF81010FFF738FA87
:1023F000FFE7FFE7049801300490E3E7FFE70B985D
:10240000006806F05BFFC00200283CD5FFE7012012
:102410000490FFE704980B99097988422CD2FFE7D2
:102420000998049900EB4110D0F8000902900B982C
:10243000049901EBC10100EB8100007E012816D157
:10244000FFE79DF80B000006002810D5FFE70B986A
:10245000049901EBC10100EB81010120C8750B98C3
:102460009DF8101041F08001FFF7FAF9FFE7FFE750
:10247000049801300490CDE70B980168486900F496
:1024800080104861FFE70B98006806F017FF800294
:10249000002856D5FFE701200490FFE704980B9928
:1024A0000979884246D2FFE70998049900EB411068
:1024B000D0F8000B02900B98049901EBC10100EBDE
:1024C000810090F8580201282FD1FFE79DF80B00FA
:1024D0000006002829D5FFE7029800F480310B9808
:1024E000D0F8D40400F00100B0EB114F1DD1FFE78C
:1024F0000B98049901EBC10100EB8101012081F8E7
:1025000057020A99886940F0800088610A984069FA
:102510000006002808D4FFE70999D1F8040840F420
:102520000070C1F8040805E0FFE7FFE704980130F8
:102530000490B3E70B980168486900F40010486103
:10254000FFE70B98006806F0B9FE400000280AD5A6
:10255000FFE70B98FFF75CF80B980168486900F0FB
:1025600080404861FFE70B98006806F0A7FE40072F
:10257000002815D5FFE70B980068406802909DF889
:1025800008004007002804D5FFE70B98FFF758F92B
:10259000FFE7029A0B980168486810434860FFE71C
:1025A000FFE70CB080BD000082B001908DF80310F1
:1025B00002B0704782B001908DF8031002B07047EE
:1025C00080B58EB00C900C9820B9FFE701208DF8F3
:1025D000370012E10C9800680B900C9890F8950465
:1025E00040B9FFE70C99002081F894040C9800F0A2
:1025F00009F9FFE70C99032081F895040B98B0F1D5
:10260000A04F04D1FFE70C9900208871FFE70C98D8
:10261000006806F0B7F90C9B1868197C8DF8241037
:1026200059689A68DB680893079206910699079A99
:10263000089BDDF824C0EE46CEF800C005F0DCFEB5
:1026400040B1FFE70C99022081F8950401208DF834
:102650003700D2E00C980068002106F097FE40B1E8
:10266000FFE70C99022081F8950401208DF83700CE
:10267000C3E000208DF82B00FFE79DF82B000C999C
:102680000979884241DAFFE70C989DF82B1001EB9D
:10269000C10100EB8101012048759DF82B000C99C8
:1026A00000EBC00201EB820108759DF82B000C992C
:1026B00000EBC00201EB8201C8850C989DF82B103D
:1026C00001EBC10100EB8101002008760C999DF817
:1026D0002B2002EBC20201EB8201C8610C999DF82C
:1026E0002B2002EBC20201EB820108620C999DF8DB
:1026F0002B2002EBC20201EB82014862FFE79DF84A
:102700002B0001308DF82B00B7E700208DF82B004F
:10271000FFE79DF82B000C99097988423EDAFFE724
:102720000C989DF82B1001EBC10100EB81010020FA
:1027300081F855029DF82B100C9A01EBC10302EBB6
:10274000830282F854120C999DF82B2002EBC202EE
:1027500001EB820181F858020C999DF82B2002EBC5
:10276000C20201EB8201C1F85C020C999DF82B209A
:1027700002EBC20201EB8201C1F860020C999DF8E4
:102780002B2002EBC20201EB8201C1F86402FFE7D9
:102790009DF82B0001308DF82B00BAE70C9B1868D0
:1027A000197C8DF8141059689A68DB6804930392B9
:1027B00002910299039A049BDDF814C0EE46CEF80C
:1027C00000C005F091FF40B1FFE70C99022081F8AD
:1027D000950401208DF837000FE00C99002001903E
:1027E00048740C99012081F895040C98006805F054
:1027F00065FF01988DF83700FFE79DF837000EB0B0
:1028000080BD000080B58AB0099000200890079034
:1028100006900590049009980068B0F1A04F47D148
:10282000FFE7FFE70020039043F63000C4F2020008
:10283000016841F001010160006800F001000390AF
:102840000398FFE74FF4C050049002200590002049
:102850000690032007900A2008900020C4F202008E
:1028600004A9FEF77BFBFFE743F63401C4F2020143
:10287000086840F080000860FFE70020029043F6FF
:102880004400C4F20200016841F480410160006824
:1028900000F4804002900298FFE7FFE74320019098
:1028A00006210022FEF732FE0198FEF725FEFFE723
:1028B0000AB080BD80B582B0019040F23430C2F2DF
:1028C00000000068006A18B1FFE70FF0B5FBFFE7F2
:1028D0000198C0790146009120B1FFE700980228D5
:1028E00009D011E040F23430C2F200000168022049
:1028F000C1F89C0111E040F23430C2F200000168DE
:102900000120C1F89C0108E040F23430C2F200001E
:1029100001680120C1F89C01FFE70CF035FF40F28F
:102920003430C2F2000001680120086202B080BDAC
:1029300081B0009001B0704781B0009001B0704745
:1029400080B584B002908DF80710FFE7029890F8E8
:102950009404012804D1FFE702208DF80F0019E04C
:102960000299012081F89404FFE7FFE79DF8070032
:1029700002994874029800689DF8071006F076FDE9
:10298000FFE70299002081F89404FFE700208DF80A
:102990000F00FFE79DF80F0004B080BD80B586B042
:1029A000059040F23430C2F20000006804900498B0
:1029B000C069039003980430029002980068303098
:1029C000019001985430059901F29C41082210F0C1
:1029D000F3FB019900208861019A0121516001995E
:1029E00048620299486820F00E004860019890F80B
:1029F00054000006002805D5FFE7029801990CF065
:102A000087FF3DE0029900208872019890F85A00F3
:102A100058B9FFE7019890F85B0030B9FFE70298DA
:102A20000199059A0CF0A0FF29E0019880680090B8
:102A300001985A3010F07CFD019948610198406975
:102A4000B0F5807F08D9FFE7039800990CF0B2FD3C
:102A500002990020087213E0019900208861019911
:102A6000C868086105980099097D019B1A695B692E
:102A7000FFF7A0F8029902200872FFE7FFE7FFE7DF
:102A800006B080BD80B584B00290029800680190C5
:102A9000FFE7029890F89404012804D1FFE7022090
:102AA0008DF80F0028E00299012081F89404FFE7D7
:102AB000FFE70198C068400600280BD5FFE70298A1
:102AC000407B012806D1FFE70199886B40F48030F4
:102AD0008863FFE70298006806F0DCFA0298006855
:102AE00005F0D6FDFFE70299002081F89404FFE786
:102AF00000208DF80F00FFE79DF80F0004B080BDA7
:102B000080B584B00290029800680190FFE70298B7
:102B100090F89404012804D1FFE702208DF80F00FB
:102B20002DE00299012081F89404FFE7FFE7029865
:102B3000006805F027FF0298006805F0BFFD0298C5
:102B40000068102106F0EAFA0198C06840060028E3
:102B50000BD5FFE70298407B012806D1FFE70199DA
:102B6000886B20F480308863FFE7FFE7029900203C
:102B700081F89404FFE700208DF80F00FFE79DF82F
:102B80000F0004B080BD000081B0009001B070471C
:102B900080B584B002900191029820B9FFE701202E
:102BA0008DF80F0021E1019843F60041C4F20201C3
:102BB000096801F00701884212D9FFE7019943F63D
:102BC0000040C4F202000170006800F007000199A3
:102BD000884204D0FFE701208DF80F0005E1FFE7F0
:102BE00002980078800700282AD5FFE7029800782D
:102BF0004007002809D5FFE743F60801C4F20201A7
:102C0000086840F4E0500860FFE702980078000789
:102C1000002809D5FFE743F60801C4F2020108685D
:102C200040F460400860FFE743F60801C4F2020187
:102C3000086820F0F000029A926810430860FFE7ED
:102C400002980078C00700286ED0FFE7029840681D
:102C5000012811D1FFE743F60000C4F2020000682A
:102C600000F400310020B0EB514F04D1FFE7012008
:102C70008DF80F00B9E02CE002984068022805D0DA
:102C8000FFE702984068032811D1FFE743F60000F0
:102C9000C4F20200006800F000710020B0EB516F38
:102CA00004D1FFE701208DF80F009EE010E043F60D
:102CB0000000C4F20200006800F002010020B0EB46
:102CC000510F04D1FFE701208DF80F008DE0FFE7E1
:102CD000FFE743F60801C4F20201086820F0030090
:102CE000029A526810430860FEF72CFB0090FFE741
:102CF00043F60800C4F20200006800F00C000299DC
:102D00004968B0EB810F0ED0FFE7FEF71BFB00997F
:102D1000401A41F28931884204D3FFE703208DF83D
:102D20000F0062E0E4E7FFE7019843F60041C4F2D8
:102D30000201096801F00701884212D2FFE70199F8
:102D400043F60040C4F202000170006800F0070082
:102D50000199884204D0FFE701208DF80F0044E07C
:102D6000FFE702980078400700280CD5FFE743F6FC
:102D70000801C4F20201086820F4E050029AD26807
:102D800010430860FFE702980078000700280DD57F
:102D9000FFE743F60801C4F20201086820F460402E
:102DA000029A126940EAC2000860FFE700F064F886
:102DB00043F60801C4F202010968C9B20A0944F2E3
:102DC0002851C0F60101895CC8404CF20001C2F2F2
:102DD000010108604CF26000C2F201000068FEF7D9
:102DE000E3FA00208DF80F00FFE79DF80F0004B014
:102DF00080BD000082B00190009101990F20086011
:102E000043F60800C4F20200016801F00301019AD0
:102E10005160016801F0F001019A9160016801F4CC
:102E2000E051019AD160006800F46040C008019947
:102E3000086143F60040C4F20200006800F0070099
:102E40000099086002B070474CF20000C2F2010025
:102E50000068704780B5FFF7F7FF43F60801C4F23A
:102E600002010968C1F3822244F23851C0F601011F
:102E7000895CC84080BD000080B586B00020059008
:102E800004900390029043F60800C4F20200006828
:102E900000F00C000146019140B1FFE701980428C1
:102EA0000AD0FFE7019808280CD04FE042F200401A
:102EB000C0F2F40002904FE041F20020C0F27A002C
:102EC000029049E043F60400C4F20200016801F0F8
:102ED0003F01059100684002002813D5FFE743F643
:102EE0000400C4F202000068C0F3881041F200211F
:102EF000C0F27A01A0FB0101059A0023FDF704FB53
:102F0000049012E043F60400C4F202000068C0F32B
:102F1000881042F20041C0F2F401A0FB0101059AC1
:102F20000023FDF7F1FA0490FFE743F60400C4F232
:102F30000200006800F44031022000EBD130039021
:102F400004980399B0FBF1F0029005E042F20040D2
:102F5000C0F2F4000290FFE7029806B080BD0000C6
:102F600080B586B00490049820B9FFE701208DF861
:102F7000170050E304980078C007002800F0A580EF
:102F8000FFE743F60800C4F20200006800F00C00FE
:102F9000042813D0FFE743F60800C4F202000068DB
:102FA00000F00C0008281ED1FFE743F60400C4F22D
:102FB000020000684002002815D5FFE743F6000034
:102FC000C4F20200006800F400310020B0EB514F61
:102FD00008D0FFE70498406820B9FFE701208DF88A
:102FE000170018E370E0FFE704984068B0F5803FF1
:102FF00009D1FFE743F60001C4F20201086840F47A
:103000008030086020E004984068B0F5A02F0DD112
:10301000FFE743F60001C4F20201086840F4802093
:103020000860086840F4803008600CE043F6000156
:10303000C4F20201086820F480300860086820F4B7
:1030400080200860FFE7FFE7FFE704984068E8B1E9
:10305000FFE7FEF777F90390FFE743F60000C4F2BD
:103060000200006800F400310020B0EB514F0CD199
:10307000FFE7FEF767F90399401A652804D3FFE7D5
:1030800003208DF81700C6E2E7E71CE0FEF75AF9C7
:103090000390FFE743F60000C4F20200006800F46A
:1030A00000310020B0EB514F0CD0FFE7FEF74AF99A
:1030B0000399401A652804D3FFE703208DF8170011
:1030C000A9E2E7E7FFE7FFE7FFE70498007880075A
:1030D000002840F19680FFE743F60800C4F20200A2
:1030E000006810F00C0F13D0FFE743F60800C4F29D
:1030F0000200006800F00C0008282CD1FFE743F61E
:103100000400C4F2020000684002002823D4FFE754
:1031100043F60000C4F20200006800F00201002043
:10312000B0EB510F09D0FFE70498C068012804D024
:10313000FFE701208DF817006DE243F60001C4F2AD
:103140000201086820F0F800049A126940EAC200FF
:103150000860FFE754E00498C06870B3FFE70021FF
:10316000C4F2472101200860FEF7ECF80390FFE766
:1031700043F60000C4F20200006800F002010020E3
:10318000B0EB510F0CD1FFE7FEF7DCF80399401AC2
:10319000032804D3FFE703208DF817003BE2E7E79D
:1031A00043F60001C4F20201086820F0F800049A16
:1031B000126940EAC200086021E00021C4F2472100
:1031C00000200860FEF7BEF80390FFE743F600001A
:1031D000C4F20200006800F002010020B0EB510FC1
:1031E0000CD0FFE7FEF7AEF80399401A032804D38A
:1031F000FFE703208DF817000DE2E7E7FFE7FFE7A1
:10320000FFE704980078000700284BD5FFE70498F3
:10321000406918B3FFE740F68061C4F247210120FE
:103220000860FEF78FF80390FFE743F67400C4F2DE
:103230000200006800F002010020B0EB510F0CD139
:10324000FFE7FEF77FF80399401A032804D3FFE74E
:1032500003208DF81700DEE1E7E722E040F6806109
:10326000C4F2472100200860FEF76CF80390FFE7E6
:1032700043F67400C4F20200006800F0020100206E
:10328000B0EB510F0CD0FFE7FEF75CF80399401A42
:10329000032804D3FFE703208DF81700BBE1E7E71D
:1032A000FFE7FFE7049800784007002840F1CE8050
:1032B000FFE700208DF8070043F64000C4F202004B
:1032C0000068C000002815D4FFE7FFE70020009049
:1032D00043F64000C4F20200016841F080510160F1
:1032E000006800F0805000900098FFE701208DF802
:1032F0000700FFE747F20000C4F200000068C005C5
:10330000002822D4FFE747F20001C4F20001086858
:1033100040F480700860FEF715F80390FFE747F26D
:103320000000C4F200000068C00500280CD4FFE7CC
:10333000FEF708F80399401A032804D3FFE7032097
:103340008DF8170067E1EAE7FFE7FFE70498806878
:10335000012809D1FFE743F67001C4F202010868B1
:1033600040F0010008601FE00498806805280DD136
:10337000FFE743F67001C4F20201086840F0040060
:103380000860086840F0010008600CE043F6700136
:10339000C4F20201086820F001000860086820F00B
:1033A00004000860FFE7FFE7FFE704988068F8B1D2
:1033B000FFE7FDF7C7FF0390FFE743F67000C4F295
:1033C0000200006800F002010020B0EB510F0ED1A6
:1033D000FFE7FDF7B7FF0399401A41F289318842B0
:1033E00004D3FFE703208DF8170014E1E5E71EE0A2
:1033F000FDF7A8FF0390FFE743F67000C4F2020058
:10340000006800F002010020B0EB510F0ED0FFE782
:10341000FDF798FF0399401A41F28931884204D39D
:10342000FFE703208DF81700F5E0E5E7FFE79DF8DB
:103430000700012809D1FFE743F64001C4F2020169
:10344000086820F080500860FFE7FFE70498806973
:10345000002800F0DC80FFE743F60800C4F2020019
:10346000006800F00C00082800F08580FFE7049851
:10347000806902285CD1FFE76021C4F24721002067
:103480000860FDF75FFF0390FFE743F60000C4F21A
:103490000200006800F000710020B0EB516F0CD00A
:1034A000FFE7FDF74FFF0399401A032804D3FFE716
:1034B00003208DF81700AEE0E7E70499C869D1F85A
:1034C00020C04B6A8A6A40EA0C0040EA8310D203AB
:1034D0004FF6FF739A43A2F580321043C96A40EA5F
:1034E000016043F60401C4F2020108606021C4F2E5
:1034F000472101200860FDF725FF0390FFE743F611
:103500000000C4F20200006800F000710020B0EB7F
:10351000516F0CD1FFE7FDF715FF0399401A0328FF
:1035200004D3FFE703208DF8170074E0E7E721E0FC
:103530006021C4F2472100200860FDF703FF0390DB
:10354000FFE743F60000C4F20200006800F00071DB
:103550000020B0EB516F0CD0FFE7FDF7F3FE0399AD
:10356000401A032804D3FFE703208DF8170052E028
:10357000E7E7FFE74AE004988069012804D1FFE704
:1035800001208DF8170046E043F60400C4F2020063
:103590000068029004988069012831D0FFE7029802
:1035A00000F480000499C969884229D1FFE7029894
:1035B00000F03F000499096A884221D1FFE7029890
:1035C00047F6C07108400499496AB0EB811F17D1D2
:1035D000FFE7029800F440300499896AC9034FF666
:1035E000FF729143A1F58031884209D1FFE702982B
:1035F00000F070600499C96AB0EB016F04D0FFE776
:1036000001208DF8170006E0FFE7FFE7FFE7002045
:103610008DF81700FFE79DF8170006B080BD000089
:1036200081B0009001B07047B0B58EB00D900C9194
:1036300000208DF813000D99032081F834000D98B7
:10364000406C032830D0FFE70C98B0F5805F06D1BE
:10365000FFE70D99886B40F08050886323E00C9859
:10366000B0F5006F0AD1FFE70D9803F0B1FE0590A9
:10367000059A0D99886B1043886313E00C9850B934
:10368000FFE70D9803F05EFE0590059A0D99886B93
:103690001043886305E00D99886B40F000608863F3
:1036A000FFE7FFE7FFE705E00D99886B40F08050EA
:1036B0008863FFE70D98806B70B1FFE70D98016894
:1036C00040F2FF50C0F2400088630D99012081F85C
:1036D00034008DF8130023E00D98406806900D9893
:1036E000806807900D98C06808900C9809900D9814
:1036F00040690A900D9880690B900D9800680699B2
:10370000079A089BDDF824C00A9C0B9DEE46CEF874
:103710000850CEF80440CEF800C002F0DBFDFFE711
:103720000D9800684FF4007102F07CFE059005983A
:1037300080B1FFE70D98016840F2FF50C0F24000F1
:103740008863059A0D99886B1043886301208DF872
:103750001300FFE70D99012081F834009DF8130054
:103760000EB0B0BD81B0009001B0704783B0019041
:1037700000910198406E800F009908700198406E8A
:10378000C0F38360009948700198406EC0F30160F7
:10379000009988700198B0F866000099C870019887
:1037A000406E000A009908710198406E00994871B6
:1037B0000198806E000D0099C8800198806EC0F35A
:1037C0000340009908720198B0F86800C00B009996
:1037D00048720198806EC0F3803000998872019819
:1037E000806EC0F340300099C8720198806EC0F3BB
:1037F0000030009908730099002048730198406CCC
:1038000000284BD1FFE70199886EC96E6FF39F20A6
:10381000800040EA9170009908610198C06EC0F381
:10382000C260009908750198C06EC0F302600099EB
:1038300048750198C06EC0F3425000998875019890
:10384000C06EC0F382400099C8750198C06EC0F385
:10385000C2300099087600980069013001994865E6
:103860000098007E00F00700811C012000FA01F39F
:10387000019A516D594351650099097A01F00F0180
:103880008840019988650199486D8A6D520A5043B4
:10389000C86501994FF40070086635E00198406CE6
:1038A00001281DD1FFE70198816E01F03F01B0F8BA
:1038B0006E0040EA014000990861009801694FF4E8
:1038C000806000EB8120019948650199486DC865C9
:1038D00001994FF4007088650199886D086612E0BF
:1038E0000198016840F2FF50C0F2400088630199DE
:1038F000886B40F0805088630199012081F8340082
:103900008DF80B0073E0FFE70198C06EC0F38030C4
:10391000009948760198C06EC0F3C6100099887669
:103920000198C06E00F07F000099C8760198006F82
:10393000C00F009908770198006FC0F3417000999B
:1039400048770198006FC0F38260009988770198EA
:10395000006FC0F383500099C8770198006FC0F3DF
:103960004050009981F820000099002081F8210042
:103970000199096FC1F30041009A82F82210019960
:10398000B1F87010C90B009A82F823100199096FE1
:10399000C1F38031009A82F824100199096FC1F3B4
:1039A0004031009A82F825100199096FC1F3003166
:1039B000009A82F826100199096FC1F38121009ABB
:1039C00082F827100199096FC1F30121009A82F84A
:1039D0002810019991F870104908009A82F829106E
:1039E000009A012182F82A108DF80B00FFE79DF85C
:1039F0000B0003B07047000082B001900091019865
:103A0000406C009908600198806C009948600198AA
:103A1000C06C009988600198006D0099C860019899
:103A2000406D009908610198806D00994861019886
:103A3000C06D009988610198006E0099C8610020EE
:103A400002B0704780B584B00390002000900398C6
:103A5000694603F04FFC0190019830B1FFE7019AED
:103A60000399886B10438863FFE70098C0F34320F5
:103A70000290029804B080BD80B584B00390039892
:103A8000006B019003980068406B81B20020B0EB9E
:103A9000D13F0AD0FFE79DF804000007002804D5B5
:103AA000FFE7039803F0D8FB87E103980068406BB9
:103AB00000F480710020B0EB112F00F09280FFE73E
:103AC000039801684FF48070886303980168C86B9D
:103AD0004CF23A329043C86303980168C86A20F0F8
:103AE0000100C8629DF80400000700283ED5FFE7EA
:103AF0009DF804008007002806D4FFE79DF8040025
:103B00008006002812D5FFE70398006802F0DAFD6E
:103B10000290029848B1FFE7029A0399886B10431C
:103B200088630398FFF71EFEFFE7FFE7039801682D
:103B300040F23A5088630399012081F834000399D8
:103B4000002008639DF80400C00730B9FFE79DF826
:103B500004008007002804D5FFE7039800F0D6FC96
:103B600003E0039800F0D6FCFFE739E09DF804007D
:103B70000006002832D5FFE79DF8040080060028E3
:103B800012D5FFE70398006802F09CFD02900298AE
:103B900048B1FFE7029A0399886B10438863039842
:103BA000FFF7E0FDFFE7FFE79DF80400C007A0B9BD
:103BB000FFE79DF80400800700280ED4FFE7039874
:103BC0000168C86A20F00800C8620399012081F8E2
:103BD0003400039800F09EFCFFE700E0FFE7FFE7FA
:103BE000EAE003980068406B00F480410020B0EBED
:103BF000913F0AD0FFE79DF804000007002804D594
:103C0000FFE7039803F02AFCD5E003980068406BB7
:103C100040F23A21084200F0CC80FFE703980068A8
:103C2000406B00F002010020B0EB510F06D0FFE71F
:103C30000399886B40F002008863FFE703980068EF
:103C4000406B00F008010020B0EBD10F06D0FFE779
:103C50000399886B40F008008863FFE703980068C9
:103C6000406B00F020010020B0EB511F06D0FFE7B1
:103C70000399886B40F020008863FFE70398006891
:103C8000406B00F010010020B0EB111F06D0FFE7E1
:103C90000399886B40F010008863FFE70398006881
:103CA000406B00F400710020B0EB512F06D0FFE70D
:103CB0000399886B40F008008863FFE70398016868
:103CC00040F23A70886303980168C86B40F23A3258
:103CD0009043C8630398006802F0F4FC024603991D
:103CE000886B104388639DF80400000700280BD5FB
:103CF000FFE70399012081F834000399002008634D
:103D00000398FFF72FFD53E09DF8040000060028FC
:103D10004CD5FFE79DF80400C006002806D4FFE755
:103D20009DF804008006002813D5FFE70398C16BB7
:103D300046F69150C0F6000008650398C06BFCF78A
:103D400081FE28B1FFE70398C06B03F021F8FFE77D
:103D50002BE09DF80400C00730B9FFE79DF8040090
:103D60008007002813D5FFE70398016C46F625501D
:103D7000C0F6000008650398006CFCF763FE28B1EC
:103D8000FFE70398006C02F0CDFFFFE70CE003991A
:103D900000208863039A012182F834100399086394
:103DA0000398FFF73DFCFFE7FFE700E0FFE7FFE7D1
:103DB00000E0FFE7FFE7FFE7FFE704B080BD00009A
:103DC00080B582B00090009820B9FFE701208DF8FF
:103DD000070024E0009890F8340038B9FFE7009914
:103DE00000200877009800F099F8FFE70099032079
:103DF00081F83400009800F017F820B1FFE70120A7
:103E00008DF807000BE00099002088630099086393
:103E1000009A012182F834108DF80700FFE79DF821
:103E2000070002B080BD0000B0B58EB00C9000203D
:103E300003900590069007900890099076200A90CC
:103E40000C9800680599069A079BDDF820C0099C2C
:103E50000A9DEE46CEF80850CEF80440CEF800C0D9
:103E600002F038FA039848F2A001C4F22521049127
:103E700008600C98006802F05BFA04990120086061
:103E80000220FDF749F80C9803F04CF90B900B98C1
:103E900060B1FFE70C99012081F834000B9B0C9A6C
:103EA000916B194391638DF8370033E00C9803F060
:103EB00073F80B900B9860B1FFE70C99012081F823
:103EC00034000B9B0C9A916B194391638DF837006A
:103ED00020E00C9800684FF4007102F0A3FA0B90F8
:103EE0000B9898B1FFE70C98016840F2FF50C0F2C0
:103EF000400088630B9A0C99886B104388630C9977
:103F0000012081F834008DF8370003E000208DF89F
:103F10003700FFE79DF837000EB0B0BD80B592B016
:103F20001190002010900F900E900D900C90119811
:103F3000006842F60041C4F20101884240F0D98095
:103F4000FFE7FFE700200B9043F64400C4F20200B5
:103F5000016841F400610160006800F400600B90AA
:103F60000B98FFE7FFE700200A9043F63000C4F209
:103F70000200016841F004010160006800F00400E3
:103F80000A900A98FFE7FFE70020099043F6300007
:103F9000C4F20200016841F008010160006800F00D
:103FA000080009900998FFE74FF4F8500C900220A0
:103FB00002900D90002007900E90032006900F9025
:103FC0000C200390109040F60000C4F202000CA9EF
:103FD0000491FCF7C3FFDDF808C003980499069A22
:103FE000079B4FF0040ECDF814E0CDF830E0CDF88B
:103FF00034C00E930F92109040F60040C4F20200BD
:10400000FCF7ACFF059B069A079940F23870C2F2A4
:104010000000089046F2584CC4F2020CC0F800C0F0
:104020004FF0006CC0F804C08160C1604FF4806C38
:10403000C0F810C04FF4805CC0F814C081614FF02C
:10404000200CC0F81CC0016243628262C1624FF45E
:1040500000110163FCF7A8FE18B1FFE7FCF7EEFCC6
:10406000FFE7FFE7119840F23871C2F200010164E6
:1040700011988863FFE74CF62010C2F2010001900E
:1040800046F2A041C4F2020101604FF000614160BC
:10409000402181600021C1604FF4806202614FF4D1
:1040A0008052426181612022C26101620422426227
:1040B00003228262C1624FF400110163FCF774FEB7
:1040C00018B1FFE7FCF7BAFCFFE7FFE711984CF6E1
:1040D0002011C2F20101C16311988863FFE731200A
:1040E00000900A210022FDF711FA0098FDF704FA6A
:1040F000FFE712B080BD000080B594B0DDF858C075
:104100001290119110920F93FDF71CF907901098DF
:10411000039011980290119848B9FFE71299886BA3
:1041200040F00060886301208DF84F00EAE11298AA
:1041300090F83400012840F0DC81FFE7129900205C
:10414000886303980F9908441299C96D884209D968
:10415000FFE71299886B40F00070886301208DF8AA
:104160004F00CFE11299032081F8340012980168C2
:104170000020C8621298406C012804D0FFE7039821
:1041800040020390FFE74FF0FF3009900F98400284
:104190000A9090200B9002200C9000200D9001209E
:1041A0000E901298006809A902F04CF80F980228A6
:1041B0000AD3FFE712990220086312980068039956
:1041C00002F09CF9089009E0129901200863129806
:1041D0000068039902F0B0F90890FFE70898B0B1C1
:1041E000FFE71298016840F2FF50C0F24000886378
:1041F000089A1299886B104388631299012081F8FC
:104200003400129A002111638DF84F007AE10A9868
:104210000490FFE712980068406B40F22A31084290
:1042200066D1FFE712980068406B000400283CD577
:10423000FFE70498C8B3FFE700200690FFE7069861
:10424000072831D8FFE71298006802F079F8059046
:10425000059802990870029801300290049801387C
:1042600004900598000A02990870029801300290A3
:10427000049801380490BDF816000299087002985D
:10428000013002900498013804909DF817000299BB
:104290000870029801300290049801380490FFE7FA
:1042A000069801300690CAE7FFE7FDF74BF807993B
:1042B000401A1699884203D2FFE71698B8B9FFE76B
:1042C0001298016840F2FF50C0F2400088631299D2
:1042D000886B40F0004088631299012081F8340017
:1042E00012990020086303208DF84F000AE191E73E
:1042F00012980068406BC005002829D5FFE70F9889
:10430000022825D3FFE71298406C03281FD0FFE74F
:104310001298006802F0D6F908900898B0B1FFE74B
:104320001298016840F2FF50C0F240008863089A7A
:104330001299886B104388631299012081F8340028
:10434000129A002111638DF84F00DBE0FFE7FFE7D1
:1043500012980068406B0007002807D4FFE7129806
:104360000068406B8005002816D5FFE712980168A9
:1043700040F2FF50C0F2400088631299886B40F011
:10438000080088631299012081F83400129A0021F4
:1043900011638DF84F00B5E012980068406B8007FC
:1043A000002816D5FFE71298016840F2FF50C0F2CE
:1043B000400088631299886B40F00200886312996C
:1043C000012081F83400129A002111638DF84F000A
:1043D00098E012980068406B8006002816D5FFE729
:1043E0001298016840F2FF50C0F2400088631299B1
:1043F000886B40F0200088631299012081F8340016
:10440000129A002111638DF84F007BE0FFE7FFE770
:10441000FFE7FFE712980068416B0020890200293E
:10442000019006D5FFE70498002818BF01200190ED
:10443000FFE70198C00700284ED0FFE712980068F8
:1044400001F07EFF059005980299087002980130EE
:1044500002900498013804900598000A02990870A7
:10446000029801300290049801380490BDF81600BB
:104470000299087002980130029004980138049063
:104480009DF8170002990870029801300290049874
:1044900001380490FCF756FF0799401A1699884294
:1044A00003D2FFE71698B0B9FFE71298016840F20F
:1044B000FF50C0F2400088631299886B40F00040C2
:1044C00088631299012081F83400129A0021116347
:1044D0008DF84F0016E09DE71298016840F23A50BF
:1044E00088631299012081F8340000208DF84F0074
:1044F00008E01299886B40F00050886301208DF825
:104500004F00FFE79DF84F0014B080BD81B00090D0
:1045100001B0704781B0009001B0704780B592B093
:10452000DDF850C010900F910E920D93FCF70AFF2A
:1045300005900E9801900F9800900F9848B9FFE7EA
:104540001099886B40F00060886301208DF8470067
:104550008DE1109890F83400012840F07F81FFE74A
:1045600010990020886301980D9908441099C96D2D
:10457000884209D9FFE71099886B40F00070886382
:1045800001208DF8470072E11099032081F8340072
:10459000109801680020C8621098406C012804D06F
:1045A000FFE7019840020190FFE74FF0FF300790CE
:1045B0000D98400208909020099000200A900B90DE
:1045C00001200C901098006807A901F03BFE0D989F
:1045D00002280AD3FFE7109920200863109800688A
:1045E000019902F08DF8069009E0109910200863F7
:1045F00010980068019902F0A1F80690FFE706986C
:10460000B0B1FFE71098016840F2FF50C0F24000DF
:104610008863069A1099886B10438863109901206B
:1046200081F83400109A002111638DF847001EE1D3
:1046300008980290FFE710980068406B40F21A312A
:1046400008426DD1FFE710980068406B40040028D5
:1046500043D5FFE7029800283FD0FFE700200490F1
:10466000FFE70498072837D8FFE700980078039001
:10467000009801300090029801380290009801786B
:10468000039840EA012003900098013000900298BE
:104690000138029000980178039840EA01400390A5
:1046A000009801300090029801380290009801783B
:1046B000039840EA0160039000980130009002984E
:1046C000013802901098006803A901F063FEFFE72B
:1046D000049801300490C4E7FFE7FCF733FE059926
:1046E000401A1499884203D2FFE71498B8B9FFE73B
:1046F0001098016840F2FF50C0F240008863069AAB
:104700001099886B104388631099012081F8340058
:1047100010990020086303208DF84700A7E08AE77E
:1047200010980068406BC005002829D5FFE70D9858
:10473000022825D3FFE71098406C03281FD0FFE71D
:104740001098006801F0BEFF06900698B0B1FFE730
:104750001098016840F2FF50C0F240008863069A4A
:104760001099886B104388631099012081F83400F8
:10477000109A002111638DF8470078E0FFE7FFE70A
:1047800010980068406B0007002807D4FFE71098D6
:104790000068406B8005002816D5FFE71098016877
:1047A00040F2FF50C0F2400088631099886B40F0DF
:1047B000080088631099012081F83400109A0021C4
:1047C00011638DF8470052E010980068406B800735
:1047D000002816D5FFE71098016840F2FF50C0F29C
:1047E000400088631099886B40F00200886310993C
:1047F000012081F83400109A002111638DF84700E0
:1048000035E010980068406BC006002816D5FFE719
:104810001098016840F2FF50C0F240008863109980
:10482000886B40F0100088631099012081F83400F3
:10483000109A002111638DF8470018E0FFE7FFE7A9
:10484000FFE71098016840F23A5088631099012000
:1048500081F8340000208DF8470008E01099886B3B
:1048600040F00050886301208DF84700FFE79DF875
:10487000470012B080BD000081B0009001B07047C9
:1048800080B588B007900798006840680690079840
:104890000068806805909DF8140000F04001002039
:1048A000B0EB911F11D1FFE70598C00768B1FFE792
:1048B0009DF8180000F040010020B0EB911F04D0DB
:1048C000FFE70798016C8847F0E09DF8140000F0BE
:1048D00002010020B0EB510F0BD0FFE79DF818103C
:1048E0000020B0EBD11F04D0FFE70798416C884748
:1048F000DCE09DF8140000F020010020B0EB511F17
:1049000010D1FFE79DF8140000F040010020B0EB4B
:10491000911F07D1FFE79DF81500C007002800F0A0
:10492000C580FFE79DF8180000F020010020B0EBE3
:10493000511F00F0BB80FFE79DF8140000F040011C
:104940000020B0EB911F28D0FFE7079890F85100A6
:10495000032813D0FFE70799486D40F0040048652D
:10496000FFE70020049007980068C068049007984B
:104970000068806804900498FFE70DE0FFE70020DE
:10498000039007980068C0680390079800688068E3
:1049900003900398FFE789E0FFE79DF8140000F01B
:1049A00020010020B0EB511F15D0FFE70799486D9B
:1049B00040F001004865FFE700200290079800687A
:1049C0008068029007980168086820F0400008603D
:1049D0000298FFE7FFE79DF81500C00778B1FFE7F1
:1049E0000799486D40F008004865FFE700200190F6
:1049F00007980068806801900198FFE7FFE7079833
:104A0000406D002851D0FFE707980168486820F002
:104A1000E00048600799012081F85100069800F0F5
:104A20000200022805D0FFE79DF81800C007B8B3C0
:104A3000FFE707980168486820F00300486007987E
:104A4000C06CA0B1FFE70798C16C47F21550C0F6E3
:104A5000000008650798C06CFBF7F4FF30B1FFE772
:104A60000799486D40F040004865FFE7FFE7079869
:104A7000806CA0B1FFE70798816C47F21550C0F633
:104A8000000008650798806CFBF7DCFF30B1FFE79A
:104A90000799486D40F040004865FFE7FFE703E0F5
:104AA0000798FFF7E9FEFFE7FFE7FFE708B080BDE3
:104AB00080B584B00290029820B9FFE701208DF8FC
:104AC0000F0072E00298406A60B9FFE70298406800
:104AD000B0F5827F01D1FFE703E002990020C861B1
:104AE000FFE705E002990020086102994861FFE7AD
:104AF000029900208862029890F8510040B9FFE7BF
:104B00000299002081F85000029800F053F8FFE766
:104B10000299022081F8510002980168086820F08B
:104B200040000860029A019211685068D2F808C0EB
:104B3000D36800F482700CF4044C604403F4006306
:104B40001844136903F002031844536903F0010386
:104B50001844936903F400731844D36903F03803CD
:104B60001844136A03F080031843926A02F4005257
:104B700010430860029801688369426A042000EAD1
:104B8000134002F010021044486002980168C8699E
:104B900020F40060C861029900204865029A012152
:104BA00082F851108DF80F00FFE79DF80F0004B058
:104BB00080BD000080B58EB00D9000200C900B9051
:104BC0000A90099008900D98006843F20001C4F221
:104BD0000101884240F09D80FFE7FFE70020079039
:104BE00043F64400C4F20200016841F480510160C0
:104BF000006800F4805007900798FFE7FFE7002067
:104C0000069043F63000C4F20200016841F0020150
:104C10000160006800F0020006900698FFE7382067
:104C2000089002200990002004900A90032003902D
:104C30000B9005200C9040F20040C4F2020008A93D
:104C4000FCF78CF9039A049940F29870C2F20000C4
:104C5000059046F21043C4F2020303604FF0C063B4
:104C600043608160C1604FF4806303614161816191
:104C7000C1610162042343628262C1620163FCF785
:104C800093F818B1FFE7FBF7D9FEFFE7FFE70D98B0
:104C900040F29871C2F20001C1640D988863FFE789
:104CA0004CF68010C2F20100029046F28841C4F234
:104CB000020101604FF0C06141604021816000212C
:104CC000C1604FF48062026141618161C161016232
:104CD0000422426203228262C1620163FCF764F82B
:104CE00018B1FFE7FBF7AAFEFFE7FFE70D984CF6C8
:104CF0008011C2F2010181640D988863FFE72320CF
:104D000001900A210022FCF701FC0198FCF7F4FB5A
:104D1000FFE70EB080BD000080B588B00690059119
:104D2000ADF812200393069890F85100012804D0A2
:104D3000FFE702208DF81F0011E1059820B1FFE781
:104D4000BDF8120020B9FFE701208DF81F0006E131
:104D500006984068B0F5827F16D1FFE70698806814
:104D600090B9FFE70699042081F851000698059A4A
:104D7000BDF812300399EC46CCF80010114600F053
:104D800045FA8DF81F00EAE0FCF7DCFA0290FFE735
:104D9000069890F85000012804D1FFE702208DF812
:104DA0001F00DCE00699012081F85000FFE7FFE7D3
:104DB0000699042081F8510006990020486505995C
:104DC000069A9163BDF81210069A9187BDF81210E9
:104DD000069AD18706990863069988860699C88637
:104DE000069908640699486406988068B0F5004FF3
:104DF0000DD1FFE706980168086820F040000860C0
:104E000006980168086820F480400860FFE706986B
:104E10000068006800F04000402807D0FFE70698CF
:104E20000168086840F040000860FFE70698C06825
:104E3000D0BBFFE7FFE70698C08FA0B3FFE7069857
:104E400000688068C00778B1FFE706980068007BBB
:104E50000699896B08700699886B013088630699FA
:104E6000C88F0138C8871DE0FCF76CFA0299401A18
:104E70000399884204D3FFE70398013018B9FFE78C
:104E8000039870B9FFE70699012081F85100FFE708
:104E90000699002081F85000FFE703208DF81F00DD
:104EA0005DE0FFE7C7E739E0FFE70698C08FA0B3F2
:104EB000FFE7069800688068C00778B1FFE70698AA
:104EC0000068C0680699896B08800699886B023073
:104ED00088630699C88F0138C8871DE0FCF732FA4D
:104EE0000299401A0399884204D3FFE703980130DE
:104EF00018B9FFE7039870B9FFE70699012081F818
:104F00005100FFE70699002081F85000FFE70320D9
:104F10008DF81F0023E0FFE7C7E7FFE70698039936
:104F2000029A02F007FB20B1FFE7069920204865AE
:104F3000FFE70699012081F85100FFE7069900205C
:104F400081F85000FFE70698406D20B1FFE701208F
:104F50008DF81F0003E000208DF81F00FFE79DF88B
:104F60001F0008B080BD000080B588B00690059194
:104F7000ADF812200393FCF7E5F90290BDF812009A
:104F8000ADF80600069890F85100012804D0FFE71C
:104F900002208DF81F0034E1059820B1FFE7BDF82D
:104FA000120020B9FFE701208DF81F0029E1FFE77B
:104FB000069890F85000012804D1FFE702208DF8F0
:104FC0001F001EE10699012081F85000FFE7FFE76E
:104FD0000699032081F8510006990020486505993B
:104FE000069A1163BDF81210069A9186BDF8121048
:104FF000069AD18606998863069988870699C88794
:10500000069948640699086406988068B0F5004FD0
:105010000DD1FFE706980168086820F0400008609D
:1050200006980168086840F480400860FFE7069829
:105030000068006800F04000402807D0FFE70698AD
:105040000168086840F040000860FFE70698C06803
:10505000B0F5006F51D1FFE70698406828B1FFE72F
:10506000BDF8060001280ED1FFE706980168006B25
:105070000088C8600699086B023008630699C88EDC
:105080000138C886FFE7FFE70698C08EA0B3FFE7A8
:10509000069800688068800700280ED5FFE706980C
:1050A0000168006B0088C8600699086B02300863CD
:1050B0000699C88E0138C8861DE0FCF743F90299AD
:1050C000401A0399884204D3FFE70398013018B9C6
:1050D000FFE7039870B9FFE70699012081F85100B6
:1050E000FFE70699002081F85000FFE703208DF8C4
:1050F0001F0086E0FFE7C7E750E00698406828B148
:10510000FFE7BDF8060001280ED1FFE70698016809
:10511000006B007808730699086B013008630699E4
:10512000C88E0138C886FFE7FFE70698C08EA0B397
:10513000FFE7069800688068800700280ED5FFE723
:1051400006980168006B007808730699086B0130B7
:1051500008630699C88E0138C8861DE0FCF7F2F88E
:105160000299401A0399884204D3FFE7039801305B
:1051700018B9FFE7039870B9FFE70699012081F895
:105180005100FFE70699002081F85000FFE7032057
:105190008DF81F0035E0FFE7C7E7FFE706980399A2
:1051A000029A02F039FA20B1FFE7069920204865FB
:1051B000FFE70698806870B9FFE7FFE700200090DE
:1051C00006980068C06800900698006880680090A3
:1051D0000098FFE7FFE70699012081F85100FFE7FB
:1051E0000699002081F85000FFE70698406D20B135
:1051F000FFE701208DF81F0003E000208DF81F005D
:10520000FFE79DF81F0008B080BD000080B58CB09E
:10521000DDF838C00A9009910892ADF81E300120DF
:105220000390FCF78FF804900A9890F851008DF8DD
:1052300017000A9840680690BDF81E00ADF81C00E3
:105240009DF81700012812D0FFE70698B0F5827F7D
:1052500009D1FFE70A98806828B9FFE79DF8170091
:10526000042804D0FFE702208DF82F009BE1099865
:1052700038B1FFE7089820B1FFE7BDF81E0020B95C
:10528000FFE701208DF82F008DE1FFE70A9890F8E5
:105290005000012804D1FFE702208DF82F0082E1A1
:1052A0000A99012081F85000FFE7FFE70A9890F87B
:1052B0005100042805D0FFE70A99052081F8510024
:1052C000FFE70A990020486508990A9A9163BDF89A
:1052D0001E100A9AD187BDF81E100A9A9187099963
:1052E0000A9A1163BDF81E100A9AD186BDF81E10E5
:1052F0000A9A91860A9908640A9948640A9800688B
:10530000006800F04000402807D0FFE70A980168D5
:10531000086840F040000860FFE70A98C068B0F5F0
:10532000006F40F08180FFE70A98406828B1FFE7EE
:10533000BDF81C0001280ED1FFE70A980168006B38
:105340000088C8600A99086B023008630A99C88E01
:105350000138C886FFE7FFE70A98C18E0120019057
:1053600039B9FFE70A98C08F002818BF01200190C3
:10537000FFE70198C007002855D0FFE70A980068AA
:1053800080688007002818D5FFE70A98C08EA0B172
:10539000FFE70398012810D1FFE70A980168006B26
:1053A0000088C8600A99086B023008630A99C88EA1
:1053B0000138C88600200390FFE70A9800688068DB
:1053C000C007A8B1FFE70A98C08F88B1FFE70A9825
:1053D0000068C0680A99896B08800A99886B023056
:1053E00088630A99C88F0138C88701200390FFE7B6
:1053F000FBF7A8FF0499401A0E99884212D3FFE7E1
:105400000E98013070B1FFE70A99012081F8510030
:10541000FFE70A99002081F85000FFE703208DF88C
:105420002F00C0E098E782E00A98406828B1FFE7C3
:10543000BDF81C0001280ED1FFE70A980168006B37
:10544000007808730A99086B013008630A99C88EBE
:105450000138C886FFE7FFE70A98C18E0120009057
:1054600039B9FFE70A98C08F002818BF01200090C3
:10547000FFE70098C007002858D0FFE70A980068A7
:1054800080688007002818D5FFE70A98C08EA0B171
:10549000FFE70398012810D1FFE70A980168006B25
:1054A000007808730A99086B013008630A99C88E5E
:1054B0000138C88600200390FFE70A9800688068DA
:1054C000C007A8B1FFE70A98C08F88B1FFE70A9824
:1054D0000068C0680A99896B08700A99886B013066
:1054E00088630A99C88F0138C88701200390FFE7B5
:1054F000FBF728FF0499401A0E99884204D3FFE76E
:105500000E98013018B9FFE70E9870B9FFE70A99B5
:10551000012081F85100FFE70A99002081F850002E
:10552000FFE703208DF82F003DE095E7FFE70A989D
:105530000E99049A02F070F868B1FFE70A992020EA
:105540004865FFE70A99002081F85000FFE7012035
:105550008DF82F0027E00A98806870B9FFE7FFE711
:10556000002002900A980068C06802900A980068BB
:10557000806802900298FFE7FFE70A99012081F80E
:105580005100FFE70A99002081F85000FFE70A98D0
:10559000406D20B1FFE701208DF82F0003E00020CF
:1055A0008DF82F00FFE79DF82F000CB080BD0000A4
:1055B00081B0009001B0704781B0009001B0704799
:1055C00080B582B00090009820B9FFE701208DF8E7
:1055D00007003FE0009890F83D0040B9FFE70099D0
:1055E000002081F83C00009800F038F8FFE70099AF
:1055F000022081F83D00009951F8040B02F078F97F
:105600000099012081F84600FFE70099012081F808
:105610003E00009981F83F00009981F84000009910
:1056200081F84100FFE7FFE70099012081F842007F
:10563000009981F84300009981F84400009981F8AD
:105640004500FFE70099012081F83D0000208DF81A
:105650000700FFE79DF8070002B080BD81B0009011
:1056600001B0704783B00190019890F83D00012887
:1056700004D0FFE701208DF80B006AE001990220B9
:1056800081F83D0001980168C86840F00100C860D9
:10569000019800680021C4F2010188423CD0FFE774
:1056A00001980068B0F1804F36D0FFE7019800689C
:1056B00040F20041C4F2000188422DD0FFE701987A
:1056C000006840F60001C4F20001884224D0FFE7E0
:1056D0000198006840F60041C4F2000188421BD0E6
:1056E000FFE70198006840F20041C4F201018842DE
:1056F00012D0FFE70198006844F20001C4F20101F2
:10570000884209D0FFE70198006841F60001C4F221
:105710000001884212D1FFE701980068806800F01C
:10572000070000900098062807D0FFE7019801685D
:10573000086840F001000860FFE706E00198016892
:10574000086840F001000860FFE700208DF80B00BA
:10575000FFE79DF80B0003B07047000081B0009098
:1057600001B0704780B584B0039003980068C068AA
:10577000029003980068006901909DF8040080077A
:10578000002824D5FFE79DF80800800700281DD5D4
:10579000FFE7039801686FF0020008610399012098
:1057A0000877039800688069800720B1FFE70398B5
:1057B000FFF7D4FF06E0039800F0E2F8039800F04A
:1057C000E3F8FFE7039900200877FFE7FFE79DF87C
:1057D00004004007002825D5FFE79DF80800400792
:1057E00000281ED5FFE7039801686FF004000861E8
:1057F00003990220087703980068806910F4407FBD
:1058000004D0FFE70398FFF7A9FF06E0039800F034
:10581000B7F8039800F0B8F8FFE70399002008777D
:10582000FFE7FFE79DF804000007002824D5FFE705
:105830009DF80800000700281DD5FFE703980168C0
:105840006FF0080008610399042008770398006846
:10585000C069800720B1FFE70398FFF77FFF06E0EC
:10586000039800F08DF8039800F08EF8FFE7039995
:1058700000200877FFE7FFE79DF80400C006002836
:1058800025D5FFE79DF80800C00600281ED5FFE7D4
:10589000039801686FF010000861039908200877E9
:1058A00003980068C06910F4407F04D0FFE70398B4
:1058B000FFF754FF06E0039800F062F8039800F049
:1058C00063F8FFE7039900200877FFE7FFE79DF8FB
:1058D0000400C00778B1FFE79DF80800C00748B191
:1058E000FFE7039801686FF001000861039800F07A
:1058F0004FF8FFE7FFE79DF804000006002810D5E9
:10590000FFE79DF808000006002809D5FFE7039887
:1059100001686FF0800008610398FFF749FEFFE718
:10592000FFE79DF804004006002810D5FFE79DF82A
:1059300008004006002809D5FFE7039801686FF0CA
:1059400040000861039800F035F8FFE7FFE79DF895
:1059500004008006002810D5FFE79DF808008006A7
:10596000002809D5FFE7039801686FF0200008615F
:105970000398FFF721FEFFE7FFE704B080BD0000BA
:1059800081B0009001B0704781B0009001B07047C5
:1059900080B582B001900198006840F60001C4F221
:1059A0000001884203D1FFE7FBF7D2FCFFE702B01A
:1059B00080BD000081B0009001B07047FFE7FEE7B6
:1059C00080B588B0FFE70020079043F63000C4F2AE
:1059D0000200016841F480010160006800F4800069
:1059E00007900798FFE7382001900B2104910022CF
:1059F0000592FBF78BFD0198FBF77EFD0499059A54
:105A00003B200290FBF782FD0298FBF775FD04999D
:105A1000059A44200390FBF779FD0398FBF76CFD92
:105A20000499059A45200690FBF770FD0698FBF750
:105A300063FD08B080BD000083B00290002001909B
:105A400002980090019803B07047000080B58EB0B6
:105A500000200D900C900B900A900990FFE7002019
:105A6000089043F63000C4F20200016841F00401DE
:105A70000160006800F0040008900898FFE7FFE765
:105A80000020079043F63000C4F20200016841F0A4
:105A900080010160006800F0800007900798FFE730
:105AA000FFE70020069043F63000C4F202000168D0
:105AB00041F002010160006800F0020006900698C3
:105AC000FFE7FFE70020059043F63000C4F2020034
:105AD000016841F001010160006800F001000590DB
